{
  "_format": "hh-sol-artifact-1",
  "contractName": "Mememachu",
  "sourceName": "contracts/Mememachu.sol",
  "abi": [
    {
      "inputs": [],
      "stateMutability": "nonpayable",
      "type": "constructor"
    },
    {
      "inputs": [
        {
          "internalType": "address",
          "name": "sender",
          "type": "address"
        },
        {
          "internalType": "uint256",
          "name": "tokenId",
          "type": "uint256"
        },
        {
          "internalType": "address",
          "name": "owner",
          "type": "address"
        }
      ],
      "name": "ERC721IncorrectOwner",
      "type": "error"
    },
    {
      "inputs": [
        {
          "internalType": "address",
          "name": "operator",
          "type": "address"
        },
        {
          "internalType": "uint256",
          "name": "tokenId",
          "type": "uint256"
        }
      ],
      "name": "ERC721InsufficientApproval",
      "type": "error"
    },
    {
      "inputs": [
        {
          "internalType": "address",
          "name": "approver",
          "type": "address"
        }
      ],
      "name": "ERC721InvalidApprover",
      "type": "error"
    },
    {
      "inputs": [
        {
          "internalType": "address",
          "name": "operator",
          "type": "address"
        }
      ],
      "name": "ERC721InvalidOperator",
      "type": "error"
    },
    {
      "inputs": [
        {
          "internalType": "address",
          "name": "owner",
          "type": "address"
        }
      ],
      "name": "ERC721InvalidOwner",
      "type": "error"
    },
    {
      "inputs": [
        {
          "internalType": "address",
          "name": "receiver",
          "type": "address"
        }
      ],
      "name": "ERC721InvalidReceiver",
      "type": "error"
    },
    {
      "inputs": [
        {
          "internalType": "address",
          "name": "sender",
          "type": "address"
        }
      ],
      "name": "ERC721InvalidSender",
      "type": "error"
    },
    {
      "inputs": [
        {
          "internalType": "uint256",
          "name": "tokenId",
          "type": "uint256"
        }
      ],
      "name": "ERC721NonexistentToken",
      "type": "error"
    },
    {
      "inputs": [
        {
          "internalType": "address",
          "name": "owner",
          "type": "address"
        }
      ],
      "name": "OwnableInvalidOwner",
      "type": "error"
    },
    {
      "inputs": [
        {
          "internalType": "address",
          "name": "account",
          "type": "address"
        }
      ],
      "name": "OwnableUnauthorizedAccount",
      "type": "error"
    },
    {
      "anonymous": false,
      "inputs": [
        {
          "indexed": true,
          "internalType": "address",
          "name": "owner",
          "type": "address"
        },
        {
          "indexed": true,
          "internalType": "address",
          "name": "approved",
          "type": "address"
        },
        {
          "indexed": true,
          "internalType": "uint256",
          "name": "tokenId",
          "type": "uint256"
        }
      ],
      "name": "Approval",
      "type": "event"
    },
    {
      "anonymous": false,
      "inputs": [
        {
          "indexed": true,
          "internalType": "address",
          "name": "owner",
          "type": "address"
        },
        {
          "indexed": true,
          "internalType": "address",
          "name": "operator",
          "type": "address"
        },
        {
          "indexed": false,
          "internalType": "bool",
          "name": "approved",
          "type": "bool"
        }
      ],
      "name": "ApprovalForAll",
      "type": "event"
    },
    {
      "anonymous": false,
      "inputs": [
        {
          "indexed": true,
          "internalType": "address",
          "name": "previousOwner",
          "type": "address"
        },
        {
          "indexed": true,
          "internalType": "address",
          "name": "newOwner",
          "type": "address"
        }
      ],
      "name": "OwnershipTransferred",
      "type": "event"
    },
    {
      "anonymous": false,
      "inputs": [
        {
          "indexed": true,
          "internalType": "address",
          "name": "from",
          "type": "address"
        },
        {
          "indexed": true,
          "internalType": "address",
          "name": "to",
          "type": "address"
        },
        {
          "indexed": true,
          "internalType": "uint256",
          "name": "tokenId",
          "type": "uint256"
        }
      ],
      "name": "Transfer",
      "type": "event"
    },
    {
      "inputs": [],
      "name": "MAX_SUPPLY",
      "outputs": [
        {
          "internalType": "uint256",
          "name": "",
          "type": "uint256"
        }
      ],
      "stateMutability": "view",
      "type": "function"
    },
    {
      "inputs": [],
      "name": "MINT_PRICE",
      "outputs": [
        {
          "internalType": "uint256",
          "name": "",
          "type": "uint256"
        }
      ],
      "stateMutability": "view",
      "type": "function"
    },
    {
      "inputs": [
        {
          "internalType": "address",
          "name": "to",
          "type": "address"
        },
        {
          "internalType": "uint256",
          "name": "tokenId",
          "type": "uint256"
        }
      ],
      "name": "approve",
      "outputs": [],
      "stateMutability": "nonpayable",
      "type": "function"
    },
    {
      "inputs": [
        {
          "internalType": "address",
          "name": "owner",
          "type": "address"
        }
      ],
      "name": "balanceOf",
      "outputs": [
        {
          "internalType": "uint256",
          "name": "",
          "type": "uint256"
        }
      ],
      "stateMutability": "view",
      "type": "function"
    },
    {
      "inputs": [
        {
          "internalType": "uint256",
          "name": "tokenId",
          "type": "uint256"
        }
      ],
      "name": "getApproved",
      "outputs": [
        {
          "internalType": "address",
          "name": "",
          "type": "address"
        }
      ],
      "stateMutability": "view",
      "type": "function"
    },
    {
      "inputs": [
        {
          "internalType": "address",
          "name": "owner",
          "type": "address"
        },
        {
          "internalType": "address",
          "name": "operator",
          "type": "address"
        }
      ],
      "name": "isApprovedForAll",
      "outputs": [
        {
          "internalType": "bool",
          "name": "",
          "type": "bool"
        }
      ],
      "stateMutability": "view",
      "type": "function"
    },
    {
      "inputs": [],
      "name": "mint",
      "outputs": [],
      "stateMutability": "payable",
      "type": "function"
    },
    {
      "inputs": [],
      "name": "name",
      "outputs": [
        {
          "internalType": "string",
          "name": "",
          "type": "string"
        }
      ],
      "stateMutability": "view",
      "type": "function"
    },
    {
      "inputs": [],
      "name": "owner",
      "outputs": [
        {
          "internalType": "address",
          "name": "",
          "type": "address"
        }
      ],
      "stateMutability": "view",
      "type": "function"
    },
    {
      "inputs": [
        {
          "internalType": "uint256",
          "name": "tokenId",
          "type": "uint256"
        }
      ],
      "name": "ownerOf",
      "outputs": [
        {
          "internalType": "address",
          "name": "",
          "type": "address"
        }
      ],
      "stateMutability": "view",
      "type": "function"
    },
    {
      "inputs": [],
      "name": "renounceOwnership",
      "outputs": [],
      "stateMutability": "nonpayable",
      "type": "function"
    },
    {
      "inputs": [
        {
          "internalType": "address",
          "name": "from",
          "type": "address"
        },
        {
          "internalType": "address",
          "name": "to",
          "type": "address"
        },
        {
          "internalType": "uint256",
          "name": "tokenId",
          "type": "uint256"
        }
      ],
      "name": "safeTransferFrom",
      "outputs": [],
      "stateMutability": "nonpayable",
      "type": "function"
    },
    {
      "inputs": [
        {
          "internalType": "address",
          "name": "from",
          "type": "address"
        },
        {
          "internalType": "address",
          "name": "to",
          "type": "address"
        },
        {
          "internalType": "uint256",
          "name": "tokenId",
          "type": "uint256"
        },
        {
          "internalType": "bytes",
          "name": "data",
          "type": "bytes"
        }
      ],
      "name": "safeTransferFrom",
      "outputs": [],
      "stateMutability": "nonpayable",
      "type": "function"
    },
    {
      "inputs": [
        {
          "internalType": "address",
          "name": "operator",
          "type": "address"
        },
        {
          "internalType": "bool",
          "name": "approved",
          "type": "bool"
        }
      ],
      "name": "setApprovalForAll",
      "outputs": [],
      "stateMutability": "nonpayable",
      "type": "function"
    },
    {
      "inputs": [
        {
          "internalType": "bytes4",
          "name": "interfaceId",
          "type": "bytes4"
        }
      ],
      "name": "supportsInterface",
      "outputs": [
        {
          "internalType": "bool",
          "name": "",
          "type": "bool"
        }
      ],
      "stateMutability": "view",
      "type": "function"
    },
    {
      "inputs": [],
      "name": "symbol",
      "outputs": [
        {
          "internalType": "string",
          "name": "",
          "type": "string"
        }
      ],
      "stateMutability": "view",
      "type": "function"
    },
    {
      "inputs": [
        {
          "internalType": "uint256",
          "name": "tokenId",
          "type": "uint256"
        }
      ],
      "name": "tokenURI",
      "outputs": [
        {
          "internalType": "string",
          "name": "",
          "type": "string"
        }
      ],
      "stateMutability": "view",
      "type": "function"
    },
    {
      "inputs": [
        {
          "internalType": "address",
          "name": "from",
          "type": "address"
        },
        {
          "internalType": "address",
          "name": "to",
          "type": "address"
        },
        {
          "internalType": "uint256",
          "name": "tokenId",
          "type": "uint256"
        }
      ],
      "name": "transferFrom",
      "outputs": [],
      "stateMutability": "nonpayable",
      "type": "function"
    },
    {
      "inputs": [
        {
          "internalType": "address",
          "name": "newOwner",
          "type": "address"
        }
      ],
      "name": "transferOwnership",
      "outputs": [],
      "stateMutability": "nonpayable",
      "type": "function"
    },
    {
      "inputs": [],
      "name": "withdraw",
      "outputs": [],
      "stateMutability": "nonpayable",
      "type": "function"
    }
  ],
  "bytecode": "0x608060405260006008556103e86009553480156200001c57600080fd5b50336040518060400160405280600981526020017f4d656d656d6163687500000000000000000000000000000000000000000000008152506040518060400160405280600481526020017f50494b410000000000000000000000000000000000000000000000000000000081525081600090816200009b91906200047d565b508060019081620000ad91906200047d565b505050600073ffffffffffffffffffffffffffffffffffffffff168173ffffffffffffffffffffffffffffffffffffffff1603620001255760006040517f1e4fbdf70000000000000000000000000000000000000000000000000000000081526004016200011c9190620005a9565b60405180910390fd5b62000136816200013d60201b60201c565b50620005c6565b6000600660009054906101000a900473ffffffffffffffffffffffffffffffffffffffff16905081600660006101000a81548173ffffffffffffffffffffffffffffffffffffffff021916908373ffffffffffffffffffffffffffffffffffffffff1602179055508173ffffffffffffffffffffffffffffffffffffffff168173ffffffffffffffffffffffffffffffffffffffff167f8be0079c531659141344cd1fd0a4f28419497f9722a3daafe3b4186f6b6457e060405160405180910390a35050565b600081519050919050565b7f4e487b7100000000000000000000000000000000000000000000000000000000600052604160045260246000fd5b7f4e487b7100000000000000000000000000000000000000000000000000000000600052602260045260246000fd5b600060028204905060018216806200028557607f821691505b6020821081036200029b576200029a6200023d565b5b50919050565b60008190508160005260206000209050919050565b60006020601f8301049050919050565b600082821b905092915050565b600060088302620003057fffffffffffffffffffffffffffffffffffffffffffffffffffffffffffffffff82620002c6565b620003118683620002c6565b95508019841693508086168417925050509392505050565b6000819050919050565b6000819050919050565b60006200035e62000358620003528462000329565b62000333565b62000329565b9050919050565b6000819050919050565b6200037a836200033d565b62000392620003898262000365565b848454620002d3565b825550505050565b600090565b620003a96200039a565b620003b68184846200036f565b505050565b5b81811015620003de57620003d26000826200039f565b600181019050620003bc565b5050565b601f8211156200042d57620003f781620002a1565b6200040284620002b6565b8101602085101562000412578190505b6200042a6200042185620002b6565b830182620003bb565b50505b505050565b600082821c905092915050565b6000620004526000198460080262000432565b1980831691505092915050565b60006200046d83836200043f565b9150826002028217905092915050565b620004888262000203565b67ffffffffffffffff811115620004a457620004a36200020e565b5b620004b082546200026c565b620004bd828285620003e2565b600060209050601f831160018114620004f55760008415620004e0578287015190505b620004ec85826200045f565b8655506200055c565b601f1984166200050586620002a1565b60005b828110156200052f5784890151825560018201915060208501945060208101905062000508565b868310156200054f57848901516200054b601f8916826200043f565b8355505b6001600288020188555050505b505050505050565b600073ffffffffffffffffffffffffffffffffffffffff82169050919050565b6000620005918262000564565b9050919050565b620005a38162000584565b82525050565b6000602082019050620005c0600083018462000598565b92915050565b61240b80620005d66000396000f3fe60806040526004361061011f5760003560e01c806370a08231116100a0578063b88d4fde11610064578063b88d4fde146103a0578063c002d23d146103c9578063c87b56dd146103f4578063e985e9c514610431578063f2fde38b1461046e5761011f565b806370a08231146102cd578063715018a61461030a5780638da5cb5b1461032157806395d89b411461034c578063a22cb465146103775761011f565b806323b872dd116100e757806323b872dd146101fc57806332cb6b0c146102255780633ccfd60b1461025057806342842e0e146102675780636352211e146102905761011f565b806301ffc9a71461012457806306fdde0314610161578063081812fc1461018c578063095ea7b3146101c95780631249c58b146101f2575b600080fd5b34801561013057600080fd5b5061014b60048036038101906101469190611b06565b610497565b6040516101589190611b4e565b60405180910390f35b34801561016d57600080fd5b50610176610579565b6040516101839190611bf9565b60405180910390f35b34801561019857600080fd5b506101b360048036038101906101ae9190611c51565b61060b565b6040516101c09190611cbf565b60405180910390f35b3480156101d557600080fd5b506101f060048036038101906101eb9190611d06565b610627565b005b6101fa61063d565b005b34801561020857600080fd5b50610223600480360381019061021e9190611d46565b6106f0565b005b34801561023157600080fd5b5061023a6107f2565b6040516102479190611da8565b60405180910390f35b34801561025c57600080fd5b506102656107f8565b005b34801561027357600080fd5b5061028e60048036038101906102899190611d46565b610850565b005b34801561029c57600080fd5b506102b760048036038101906102b29190611c51565b610870565b6040516102c49190611cbf565b60405180910390f35b3480156102d957600080fd5b506102f460048036038101906102ef9190611dc3565b610882565b6040516103019190611da8565b60405180910390f35b34801561031657600080fd5b5061031f61093c565b005b34801561032d57600080fd5b50610336610950565b6040516103439190611cbf565b60405180910390f35b34801561035857600080fd5b5061036161097a565b60405161036e9190611bf9565b60405180910390f35b34801561038357600080fd5b5061039e60048036038101906103999190611e1c565b610a0c565b005b3480156103ac57600080fd5b506103c760048036038101906103c29190611f91565b610a22565b005b3480156103d557600080fd5b506103de610a47565b6040516103eb9190611da8565b60405180910390f35b34801561040057600080fd5b5061041b60048036038101906104169190611c51565b610a4d565b6040516104289190611bf9565b60405180910390f35b34801561043d57600080fd5b5061045860048036038101906104539190612014565b610ab6565b6040516104659190611b4e565b60405180910390f35b34801561047a57600080fd5b5061049560048036038101906104909190611dc3565b610b4a565b005b60007f80ac58cd000000000000000000000000000000000000000000000000000000007bffffffffffffffffffffffffffffffffffffffffffffffffffffffff1916827bffffffffffffffffffffffffffffffffffffffffffffffffffffffff1916148061056257507f5b5e139f000000000000000000000000000000000000000000000000000000007bffffffffffffffffffffffffffffffffffffffffffffffffffffffff1916827bffffffffffffffffffffffffffffffffffffffffffffffffffffffff1916145b80610572575061057182610bd0565b5b9050919050565b60606000805461058890612083565b80601f01602080910402602001604051908101604052809291908181526020018280546105b490612083565b80156106015780601f106105d657610100808354040283529160200191610601565b820191906000526020600020905b8154815290600101906020018083116105e457829003601f168201915b5050505050905090565b600061061682610c3a565b5061062082610cc2565b9050919050565b6106398282610634610cff565b610d07565b5050565b600854341015610682576040517f08c379a000000000000000000000000000000000000000000000000000000000815260040161067990612100565b60405180910390fd5b600954600754106106c8576040517f08c379a00000000000000000000000000000000000000000000000000000000081526004016106bf9061216c565b60405180910390fd5b6000600760008154809291906106dd906121bb565b9190505590506106ed3382610d19565b50565b600073ffffffffffffffffffffffffffffffffffffffff168273ffffffffffffffffffffffffffffffffffffffff16036107625760006040517f64a0ae920000000000000000000000000000000000000000000000000000000081526004016107599190611cbf565b60405180910390fd5b60006107768383610771610cff565b610d37565b90508373ffffffffffffffffffffffffffffffffffffffff168173ffffffffffffffffffffffffffffffffffffffff16146107ec578382826040517f64283d7b0000000000000000000000000000000000000000000000000000000081526004016107e393929190612203565b60405180910390fd5b50505050565b60095481565b610800610f51565b610808610950565b73ffffffffffffffffffffffffffffffffffffffff166108fc479081150290604051600060405180830381858888f1935050505015801561084d573d6000803e3d6000fd5b50565b61086b83838360405180602001604052806000815250610a22565b505050565b600061087b82610c3a565b9050919050565b60008073ffffffffffffffffffffffffffffffffffffffff168273ffffffffffffffffffffffffffffffffffffffff16036108f55760006040517f89c62b640000000000000000000000000000000000000000000000000000000081526004016108ec9190611cbf565b60405180910390fd5b600360008373ffffffffffffffffffffffffffffffffffffffff1673ffffffffffffffffffffffffffffffffffffffff168152602001908152602001600020549050919050565b610944610f51565b61094e6000610fd8565b565b6000600660009054906101000a900473ffffffffffffffffffffffffffffffffffffffff16905090565b60606001805461098990612083565b80601f01602080910402602001604051908101604052809291908181526020018280546109b590612083565b8015610a025780601f106109d757610100808354040283529160200191610a02565b820191906000526020600020905b8154815290600101906020018083116109e557829003601f168201915b5050505050905090565b610a1e610a17610cff565b838361109e565b5050565b610a2d8484846106f0565b610a41610a38610cff565b8585858561120d565b50505050565b60085481565b6060610a5882610c3a565b506000610a636113be565b90506000815111610a835760405180602001604052806000815250610aae565b80610a8d846113d5565b604051602001610a9e929190612276565b6040516020818303038152906040525b915050919050565b6000600560008473ffffffffffffffffffffffffffffffffffffffff1673ffffffffffffffffffffffffffffffffffffffff16815260200190815260200160002060008373ffffffffffffffffffffffffffffffffffffffff1673ffffffffffffffffffffffffffffffffffffffff16815260200190815260200160002060009054906101000a900460ff16905092915050565b610b52610f51565b600073ffffffffffffffffffffffffffffffffffffffff168173ffffffffffffffffffffffffffffffffffffffff1603610bc45760006040517f1e4fbdf7000000000000000000000000000000000000000000000000000000008152600401610bbb9190611cbf565b60405180910390fd5b610bcd81610fd8565b50565b60007f01ffc9a7000000000000000000000000000000000000000000000000000000007bffffffffffffffffffffffffffffffffffffffffffffffffffffffff1916827bffffffffffffffffffffffffffffffffffffffffffffffffffffffff1916149050919050565b600080610c46836114a3565b9050600073ffffffffffffffffffffffffffffffffffffffff168173ffffffffffffffffffffffffffffffffffffffff1603610cb957826040517f7e273289000000000000000000000000000000000000000000000000000000008152600401610cb09190611da8565b60405180910390fd5b80915050919050565b60006004600083815260200190815260200160002060009054906101000a900473ffffffffffffffffffffffffffffffffffffffff169050919050565b600033905090565b610d1483838360016114e0565b505050565b610d338282604051806020016040528060008152506116a5565b5050565b600080610d43846114a3565b9050600073ffffffffffffffffffffffffffffffffffffffff168373ffffffffffffffffffffffffffffffffffffffff1614610d8557610d848184866116c9565b5b600073ffffffffffffffffffffffffffffffffffffffff168173ffffffffffffffffffffffffffffffffffffffff1614610e1657610dc76000856000806114e0565b6001600360008373ffffffffffffffffffffffffffffffffffffffff1673ffffffffffffffffffffffffffffffffffffffff168152602001908152602001600020600082825403925050819055505b600073ffffffffffffffffffffffffffffffffffffffff168573ffffffffffffffffffffffffffffffffffffffff1614610e99576001600360008773ffffffffffffffffffffffffffffffffffffffff1673ffffffffffffffffffffffffffffffffffffffff168152602001908152602001600020600082825401925050819055505b846002600086815260200190815260200160002060006101000a81548173ffffffffffffffffffffffffffffffffffffffff021916908373ffffffffffffffffffffffffffffffffffffffff160217905550838573ffffffffffffffffffffffffffffffffffffffff168273ffffffffffffffffffffffffffffffffffffffff167fddf252ad1be2c89b69c2b068fc378daa952ba7f163c4a11628f55a4df523b3ef60405160405180910390a4809150509392505050565b610f59610cff565b73ffffffffffffffffffffffffffffffffffffffff16610f77610950565b73ffffffffffffffffffffffffffffffffffffffff1614610fd657610f9a610cff565b6040517f118cdaa7000000000000000000000000000000000000000000000000000000008152600401610fcd9190611cbf565b60405180910390fd5b565b6000600660009054906101000a900473ffffffffffffffffffffffffffffffffffffffff16905081600660006101000a81548173ffffffffffffffffffffffffffffffffffffffff021916908373ffffffffffffffffffffffffffffffffffffffff1602179055508173ffffffffffffffffffffffffffffffffffffffff168173ffffffffffffffffffffffffffffffffffffffff167f8be0079c531659141344cd1fd0a4f28419497f9722a3daafe3b4186f6b6457e060405160405180910390a35050565b600073ffffffffffffffffffffffffffffffffffffffff168273ffffffffffffffffffffffffffffffffffffffff160361110f57816040517f5b08ba180000000000000000000000000000000000000000000000000000000081526004016111069190611cbf565b60405180910390fd5b80600560008573ffffffffffffffffffffffffffffffffffffffff1673ffffffffffffffffffffffffffffffffffffffff16815260200190815260200160002060008473ffffffffffffffffffffffffffffffffffffffff1673ffffffffffffffffffffffffffffffffffffffff16815260200190815260200160002060006101000a81548160ff0219169083151502179055508173ffffffffffffffffffffffffffffffffffffffff168373ffffffffffffffffffffffffffffffffffffffff167f17307eab39ab6107e8899845ad3d59bd9653f200f220920489ca2b5937696c31836040516112009190611b4e565b60405180910390a3505050565b60008373ffffffffffffffffffffffffffffffffffffffff163b11156113b7578273ffffffffffffffffffffffffffffffffffffffff1663150b7a02868685856040518563ffffffff1660e01b815260040161126c94939291906122ef565b6020604051808303816000875af19250505080156112a857506040513d601f19601f820116820180604052508101906112a59190612350565b60015b61132c573d80600081146112d8576040519150601f19603f3d011682016040523d82523d6000602084013e6112dd565b606091505b50600081510361132457836040517f64a0ae9200000000000000000000000000000000000000000000000000000000815260040161131b9190611cbf565b60405180910390fd5b805181602001fd5b63150b7a0260e01b7bffffffffffffffffffffffffffffffffffffffffffffffffffffffff1916817bffffffffffffffffffffffffffffffffffffffffffffffffffffffff1916146113b557836040517f64a0ae920000000000000000000000000000000000000000000000000000000081526004016113ac9190611cbf565b60405180910390fd5b505b5050505050565b606060405180602001604052806000815250905090565b6060600060016113e48461178d565b01905060008167ffffffffffffffff81111561140357611402611e66565b5b6040519080825280601f01601f1916602001820160405280156114355781602001600182028036833780820191505090505b509050600082602001820190505b600115611498578080600190039150507f3031323334353637383961626364656600000000000000000000000000000000600a86061a8153600a858161148c5761148b61237d565b5b04945060008503611443575b819350505050919050565b60006002600083815260200190815260200160002060009054906101000a900473ffffffffffffffffffffffffffffffffffffffff169050919050565b80806115195750600073ffffffffffffffffffffffffffffffffffffffff168273ffffffffffffffffffffffffffffffffffffffff1614155b1561164d57600061152984610c3a565b9050600073ffffffffffffffffffffffffffffffffffffffff168373ffffffffffffffffffffffffffffffffffffffff161415801561159457508273ffffffffffffffffffffffffffffffffffffffff168173ffffffffffffffffffffffffffffffffffffffff1614155b80156115a757506115a58184610ab6565b155b156115e957826040517fa9fbf51f0000000000000000000000000000000000000000000000000000000081526004016115e09190611cbf565b60405180910390fd5b811561164b57838573ffffffffffffffffffffffffffffffffffffffff168273ffffffffffffffffffffffffffffffffffffffff167f8c5be1e5ebec7d5bd14f71427d1e84f3dd0314c0f7b2291e5b200ac8c7c3b92560405160405180910390a45b505b836004600085815260200190815260200160002060006101000a81548173ffffffffffffffffffffffffffffffffffffffff021916908373ffffffffffffffffffffffffffffffffffffffff16021790555050505050565b6116af83836118e0565b6116c46116ba610cff565b600085858561120d565b505050565b6116d48383836119d9565b61178857600073ffffffffffffffffffffffffffffffffffffffff168373ffffffffffffffffffffffffffffffffffffffff160361174957806040517f7e2732890000000000000000000000000000000000000000000000000000000081526004016117409190611da8565b60405180910390fd5b81816040517f177e802f00000000000000000000000000000000000000000000000000000000815260040161177f9291906123ac565b60405180910390fd5b505050565b600080600090507a184f03e93ff9f4daa797ed6e38ed64bf6a1f01000000000000000083106117eb577a184f03e93ff9f4daa797ed6e38ed64bf6a1f01000000000000000083816117e1576117e061237d565b5b0492506040810190505b6d04ee2d6d415b85acef81000000008310611828576d04ee2d6d415b85acef8100000000838161181e5761181d61237d565b5b0492506020810190505b662386f26fc10000831061185757662386f26fc10000838161184d5761184c61237d565b5b0492506010810190505b6305f5e1008310611880576305f5e10083816118765761187561237d565b5b0492506008810190505b61271083106118a557612710838161189b5761189a61237d565b5b0492506004810190505b606483106118c857606483816118be576118bd61237d565b5b0492506002810190505b600a83106118d7576001810190505b80915050919050565b600073ffffffffffffffffffffffffffffffffffffffff168273ffffffffffffffffffffffffffffffffffffffff16036119525760006040517f64a0ae920000000000000000000000000000000000000000000000000000000081526004016119499190611cbf565b60405180910390fd5b600061196083836000610d37565b9050600073ffffffffffffffffffffffffffffffffffffffff168173ffffffffffffffffffffffffffffffffffffffff16146119d45760006040517f73c6ac6e0000000000000000000000000000000000000000000000000000000081526004016119cb9190611cbf565b60405180910390fd5b505050565b60008073ffffffffffffffffffffffffffffffffffffffff168373ffffffffffffffffffffffffffffffffffffffff1614158015611a9157508273ffffffffffffffffffffffffffffffffffffffff168473ffffffffffffffffffffffffffffffffffffffff161480611a525750611a518484610ab6565b5b80611a9057508273ffffffffffffffffffffffffffffffffffffffff16611a7883610cc2565b73ffffffffffffffffffffffffffffffffffffffff16145b5b90509392505050565b6000604051905090565b600080fd5b600080fd5b60007fffffffff0000000000000000000000000000000000000000000000000000000082169050919050565b611ae381611aae565b8114611aee57600080fd5b50565b600081359050611b0081611ada565b92915050565b600060208284031215611b1c57611b1b611aa4565b5b6000611b2a84828501611af1565b91505092915050565b60008115159050919050565b611b4881611b33565b82525050565b6000602082019050611b636000830184611b3f565b92915050565b600081519050919050565b600082825260208201905092915050565b60005b83811015611ba3578082015181840152602081019050611b88565b60008484015250505050565b6000601f19601f8301169050919050565b6000611bcb82611b69565b611bd58185611b74565b9350611be5818560208601611b85565b611bee81611baf565b840191505092915050565b60006020820190508181036000830152611c138184611bc0565b905092915050565b6000819050919050565b611c2e81611c1b565b8114611c3957600080fd5b50565b600081359050611c4b81611c25565b92915050565b600060208284031215611c6757611c66611aa4565b5b6000611c7584828501611c3c565b91505092915050565b600073ffffffffffffffffffffffffffffffffffffffff82169050919050565b6000611ca982611c7e565b9050919050565b611cb981611c9e565b82525050565b6000602082019050611cd46000830184611cb0565b92915050565b611ce381611c9e565b8114611cee57600080fd5b50565b600081359050611d0081611cda565b92915050565b60008060408385031215611d1d57611d1c611aa4565b5b6000611d2b85828601611cf1565b9250506020611d3c85828601611c3c565b9150509250929050565b600080600060608486031215611d5f57611d5e611aa4565b5b6000611d6d86828701611cf1565b9350506020611d7e86828701611cf1565b9250506040611d8f86828701611c3c565b9150509250925092565b611da281611c1b565b82525050565b6000602082019050611dbd6000830184611d99565b92915050565b600060208284031215611dd957611dd8611aa4565b5b6000611de784828501611cf1565b91505092915050565b611df981611b33565b8114611e0457600080fd5b50565b600081359050611e1681611df0565b92915050565b60008060408385031215611e3357611e32611aa4565b5b6000611e4185828601611cf1565b9250506020611e5285828601611e07565b9150509250929050565b600080fd5b600080fd5b7f4e487b7100000000000000000000000000000000000000000000000000000000600052604160045260246000fd5b611e9e82611baf565b810181811067ffffffffffffffff82111715611ebd57611ebc611e66565b5b80604052505050565b6000611ed0611a9a565b9050611edc8282611e95565b919050565b600067ffffffffffffffff821115611efc57611efb611e66565b5b611f0582611baf565b9050602081019050919050565b82818337600083830152505050565b6000611f34611f2f84611ee1565b611ec6565b905082815260208101848484011115611f5057611f4f611e61565b5b611f5b848285611f12565b509392505050565b600082601f830112611f7857611f77611e5c565b5b8135611f88848260208601611f21565b91505092915050565b60008060008060808587031215611fab57611faa611aa4565b5b6000611fb987828801611cf1565b9450506020611fca87828801611cf1565b9350506040611fdb87828801611c3c565b925050606085013567ffffffffffffffff811115611ffc57611ffb611aa9565b5b61200887828801611f63565b91505092959194509250565b6000806040838503121561202b5761202a611aa4565b5b600061203985828601611cf1565b925050602061204a85828601611cf1565b9150509250929050565b7f4e487b7100000000000000000000000000000000000000000000000000000000600052602260045260246000fd5b6000600282049050600182168061209b57607f821691505b6020821081036120ae576120ad612054565b5b50919050565b7f496e73756666696369656e74207061796d656e74000000000000000000000000600082015250565b60006120ea601483611b74565b91506120f5826120b4565b602082019050919050565b60006020820190508181036000830152612119816120dd565b9050919050565b7f4d617820737570706c7920726561636865640000000000000000000000000000600082015250565b6000612156601283611b74565b915061216182612120565b602082019050919050565b6000602082019050818103600083015261218581612149565b9050919050565b7f4e487b7100000000000000000000000000000000000000000000000000000000600052601160045260246000fd5b60006121c682611c1b565b91507fffffffffffffffffffffffffffffffffffffffffffffffffffffffffffffffff82036121f8576121f761218c565b5b600182019050919050565b60006060820190506122186000830186611cb0565b6122256020830185611d99565b6122326040830184611cb0565b949350505050565b600081905092915050565b600061225082611b69565b61225a818561223a565b935061226a818560208601611b85565b80840191505092915050565b60006122828285612245565b915061228e8284612245565b91508190509392505050565b600081519050919050565b600082825260208201905092915050565b60006122c18261229a565b6122cb81856122a5565b93506122db818560208601611b85565b6122e481611baf565b840191505092915050565b60006080820190506123046000830187611cb0565b6123116020830186611cb0565b61231e6040830185611d99565b818103606083015261233081846122b6565b905095945050505050565b60008151905061234a81611ada565b92915050565b60006020828403121561236657612365611aa4565b5b60006123748482850161233b565b91505092915050565b7f4e487b7100000000000000000000000000000000000000000000000000000000600052601260045260246000fd5b60006040820190506123c16000830185611cb0565b6123ce6020830184611d99565b939250505056fea2646970667358221220fcfabeb21813ab7fc013e168607e967bc60848fb063fa9e1682cbc56eb4f543e64736f6c63430008140033",
  "linkReferences": {},
  "deployedLinkReferences": {}
}